:020000040800F2
:1000000040180020533100080D3100080F3100085E
:1000100011310008133100081531000800000000FC
:100020000000000000000000000000001731000880
:1000300019310008000000001B3100081D310008C4
:10004000F71D0008F71D0008F71D0008F71D000840
:10005000F71D0008F71D0008F71D0008F71D000830
:10006000F71D0008F71D0008F71D0008F71D000820
:10007000F71D0008F71D0008F71D0008F71D000810
:10008000F71D0008F71D0008F71D00081F310008C4
:1000900023310008F71D0008F71D0008F71D0008B0
:1000A000F71D0008F5260008F71D0008F71D0008D9
:1000B000F71D0008F71D0008F71D0008F71D0008D0
:1000C000F71D0008F71D0008F71D0008F71D0008C0
:1000D000F71D0008E52B000827310008293100082A
:0C00E000F71D0008F71D0008F71D0008C0
:10010000571368249D2800088928000897250008AF
:10011000CB250008F1250008C9270008D3270008CF
:040120006327000849
:1001800001B401F00F000099096801F4E06108432F
:1001900040F4004040F080000099086001B07047D2
:1001A000F1B50D46009800F089FFA84218D00098DC
:1001B000006890EA051048F28006DFF84C7D384070
:1001C000304300990860009800F078FFA84207D0FB
:1001D0000098006890EA05103840304300990860A4
:1001E000E3BD01B400290098006801D080F0400010
:1001F000DFF8181D084040F4004040F080000099EE
:10020000086001B0704701B40098006840F04000F9
:10021000DFF8F81C084040F4004040F080000099EE
:10022000086001B0704701B400980068DFF8E01C76
:10023000084040F400400099086001B0704701B4E4
:10024000002901D04FF4807100980068DFF8C42CB9
:100250001040084340F4004040F0800000990860DE
:1002600001B0704701B400980068DFF8AC2C104072
:1002700040EA412040F4004040F0800000990860CE
:1002800001B07047F1B50D46009800F01EFFA8427E
:1002900018D00098006890EA053048F28006DFF830
:1002A0007C7C3840304300990860009800F00DFFD6
:1002B000A84207D00098006890EA053038403043E3
:1002C00000990860E3BD01B400290098006801D0DE
:1002D00080F48040DFF8481C084040F4004040F0C3
:1002E00080000099086001B0704701B40098006870
:1002F00040F48040DFF8281C084040F4004040F003
:1003000080000099086001B0704701B4009800684F
:10031000DFF8501D084040F080000099086001B0EF
:10032000704730B583B001214FF4000000F00AFFA0
:1003300001214FF4000000F0EFFE00214FF4000017
:1003400000F000FF002000F0D9FEDFF81C4D012076
:10035000208000210D2000F0EAFE01210D2000F098
:10036000D0FEDFF8085D01220221284600F04FFF91
:100370000220ADF8040010208DF8070003208DF84E
:10038000060001A9284600F0F3FE01214FF4EA100F
:1003900000F043FF00214FF0007000F0BDFE4FF46D
:1003A000C050ADF8040018208DF8070003208DF828
:1003B000060001A9DFF8B80C00F0DAFE0020C04604
:1003C000C04600F021F80020A08013208DF8000026
:1003D00001208DF8010000208DF8020001208DF829
:1003E000030000A800F04DFF14208DF8000002204B
:1003F0008DF8010000208DF8020001208DF8030027
:1004000000A800F03EFF37BD38B50020DFF8642CAF
:10041000034604E000EB8001C9008B50401C2028FB
:10042000F8D3184608E000EB4001DFF84C2C02EB53
:1004300081011A468A80401C1028F4D3DFF83C4C16
:1004400018466060C046C046DFF81C5CDFF8300C20
:10045000400840384FF6F87108402882002020609C
:1004600001220FF640410FF6344000F08EF80122D1
:100470000FF640410FF6344000F087F8002000F0FE
:1004800064FA4FF41C40288031BD002100E0491C73
:10049000102909D201EB4100DFF8DC2B02EB8000D0
:1004A0008288002AF3D170470020704700218180A4
:1004B00070472DE9F84304460D461646DFF8BC7B2D
:1004C000D7F8008028683F2805D31F304FEA50191D
:1004D0004FEA491904E0401C4FEA50094FEA490924
:1004E0000020208000E08046B8F1000F13D0B8F85B
:1004F0000200B8F8041008182080C01C20804FF6B5
:10050000FC7101402180D8F80800002803D04288FF
:1005100049448A42E7D320884844DFF8681BC90869
:10052000B0EBC10F03D2FFF7B0FF002801D10020CC
:1005300014E03968002904D13860014600228A603D
:1005400004E0D8F808108160C8F808000670218817
:100550004180A0F80490C5F800900120BDE8F28326
:1005600038B50446DFF8140B006800280CD0816809
:100570000278A24204D1A960FFF798FFA86801E0C1
:10058000054608460028F0D131BD2DE9F04F85B071
:1005900005460E469346A87800F047FC044604EB57
:1005A00084004FEAC009DFF8CCAA09EB0A07B84675
:1005B000BBF1000F00F0A181A8880190224601A99B
:1005C0000DF10A00FFF775FF002801D10420B9E101
:1005D000706800280DD0A8880190224601A902A8C1
:1005E000FFF767FF002804D12046FFF7B9FF04207A
:1005F000A8E1002088F81C0008F1240989F801000E
:10060000E87800F0030088F80C00A888C8F8080013
:10061000706899F8011060F3000189F801103078D2
:1006200088F804002046C00707D597F8250000F099
:100630000100401C88F8240002E0002088F8240013
:10064000DFF8440A00903078009901EB80000090B8
:1006500061100098FFF794FD0098C8F80000E007CB
:1006600040F1968000210098FFF79AFD0021009844
:10067000FFF7B7FD0098FFF7D6FDDFF8040A400842
:100680004038C408E400DFF8045A98F8040004EB8A
:10069000C000BDF80A1025F8101098F8040004EB0B
:1006A000C000801C002125F8101098F80C000028CC
:1006B00005D0022831D00FD3032859D064E001219E
:1006C0000098FFF7CFFD00210098FFF7B8FD022149
:1006D0000098FFF765FD57E00098FFF7D3FD98F805
:1006E000040004EBC000001DBDF8081025F8101030
:1006F00098F8040004EBC000801D002125F81010BC
:1007000002210098FFF7AEFD00210098FFF797FD4A
:1007100003210098FFF744FD36E00098FFF7A2FDA3
:1007200099F8010000F001010098FFF788FD99F8A1
:100730000100C00717D500210098FFF7A3FD98F826
:10074000040004EBC000001DBDF8081025F81010CF
:1007500098F8040004EBC000801D002125F810105B
:100760000098FFF7B0FD02210098FFF719FD0BE09C
:1007700003210098FFF776FD00210098FFF75FFD49
:1007800002210098FFF70CFD0098FFF74CFDD8E020
:100790000FF604100068039000210098FFF772FD27
:1007A00000210098FFF78FFD0098FFF7AEFDA888A5
:1007B00001903F288041C043C00FBDF80C1060F38A
:1007C000CF31ADF80C1001983F2802D34009401EEC
:1007D00000E04008BDF80C1060F38E21ADF80C105D
:1007E000DFF89C0840084038C408E400DFF89C5853
:1007F00098F8040004EBC000001DBDF80A1025F8AD
:10080000101098F8040004EBC000801DBDF80C1017
:1008100025F8101098F80C00002805D0022832D0D6
:100820000FD303285CD08CE001210098FFF71AFD5C
:1008300000210098FFF703FD02210098FFF722FD39
:100840007FE098F8040004EBC000801CBDF80C1099
:1008500025F8101000210098FFF7A2FC98F804007A
:1008600004EBC000BDF8081025F810100221009814
:10087000FFF7F8FC00210098FFF7E1FC0321009846
:10088000FFF700FD5DE000210098FFF7EBFC99F811
:10089000010000F001010098FFF7D1FC99F8010078
:1008A000C00718D500210098FFF77AFC98F80400DB
:1008B00004EBC000801CBDF80C1025F8101098F84F
:1008C000040004EBC000BDF8081025F8101000214A
:1008D0000098FFF786FC03210098FFF7D3FC30E077
:1008E00003210098FFF7BEFC00210098FFF7A7FC4A
:1008F00003210098FFF7C6FC23E059F80A000028FE
:100900001FD0DFF8840700903879009901EB800050
:1009100000902046C00707D500210098FFF740FC53
:100920000098FFF780FC06E000210098FFF7AAFC82
:100930000098FFF7EAFC2046FFF712FE002049F876
:100940000A00002005B0BDE8F08F40F08000DFF81D
:10095000401708807047DFF81007018841F0080150
:100960000180018841F0040101807047002803D014
:10097000022831D01AD37047DFF8000741680029F8
:1009800045D0491E416042D1DFF8DC0601884FF6B0
:10099000FF621140018001884FF6EF721140018023
:1009A00001884FF6F772114001807047DFF8B806F2
:1009B00001884FF6FB7211400180DFF8C016082253
:1009C0004A60018841F010010180018841F4807182
:1009D0000180002000F025BDDFF88C06018901F4BC
:1009E0004041B1F5004F02D0B1F5405F00D1B2E710
:1009F00000290CD001884FF6FB721140018001885C
:100A00004FF6F77211400180002000F00ABD7047D8
:100A100070B500EB8002D500DFF85866AA59002AAD
:100A200001D1062070BDAA1902F11C04002914D0BE
:100A300007211177C00709D50121A859FFF7B0FB9D
:100A4000607A00F00100401C20722EE00121A859BC
:100A5000FFF718FC0020207227E000211177C00763
:100A600013D5607A00F00100401C2072607AC00744
:100A700002D5A859FFF727FC0021A859FFF7B1FBC1
:100A80000221A859FFF78CFB0FE008462072607A1C
:100A9000C00702D5A859FFF7A4FB0021A859FFF70A
:100AA00012FC0321A859FFF7EDFB002070BD80B5B3
:100AB000DFF8C00500F144014A7A02F00102521C3D
:100AC0000A72072180F84410002180F824100721C1
:100AD000017701210846FFF79BFF01210020BDE8B7
:100AE000044095E710B50C4600EB8001C900DFF823
:100AF00084258B58002B01D1062010BDC0078858D3
:100B000007D500F0DBFA012801D1012008E0002020
:100B100006E000F0DAFA012801D1012000E000200F
:100B20002060002010BD2DE9F041054605EB850051
:100B3000DFF8401501EBC0063746387F022802D0A7
:100B4000012840F07081E80740F1C880B8697969F0
:100B5000401A0EE0801D23F8104003213868FFF78B
:100B60001FFB06F10800017F491E0177B86979690A
:100B7000401A07F1240197F82420002A00F09E80F3
:100B8000002805D14A78C2F34002002A00F096807E
:100B900002223A774A78C2F38003002B08D0BB6860
:100BA000984205D102F0FB024A7042F002024A70FC
:100BB000BA68904200D91046040003D14A7802F086
:100BC000FD024A707A6983187B614FF001083B7B14
:100BD000002B2FD0022B03D026D3032B2AD022E1C7
:100BE0004B78DB0726D53B681B689B0B03F00103A2
:100BF00093F001081ED1DFF888345B08403BDB0826
:100C0000DB0097F804C003EBCC0CDFF880340CF168
:100C1000040C33F81CC04FEA4C0E2EF0030E734444
:100C20000CF0010C9C442BE03B681B689B0913F003
:100C30000108E0D0DFF848345B08403BDB08DB000C
:100C400097F804C003EBCC0CDFF8403433F81CC039
:100C50004FEA4C0E2EF0030E73440CF0010C9C4432
:100C60000EE0D7F820E012F80E30521C401E05D0DE
:100C700012F80EE043EA0E23521C401E4CF8043BCF
:100C80000028EED1387B022805D14878C00702D56C
:100C90003868FFF72AFBDFF8E80340084038C3084C
:100CA000DB00387903EBC000DFF8E033B8F1000F68
:100CB0003FF450AF801C23F810404EE74978C1F351
:100CC0004001002940F0AF80002840F0AC800320B4
:100CD00038773869002800F0A6809FE097F8240054
:100CE000002800F09380387B00280ED0022803D023
:100CF00024D3032809D096E007F124004078C007E8
:100D000003D53868007840061CD5DD4840084038D7
:100D1000C308DB00387903EBC001DC4B881D33F8D6
:100D200010008005800D091D33F811104A0022F0D3
:100D30000302D21801F0010189181AE0386800682E
:100D40004004E2D5CE4840084038C308DB0038797B
:100D500003EBC001CD4B881C33F810008005800DDB
:100D600033F811104A0022F00302D21801F00101F9
:100D70008918BA697B69D21A824206D2052038776F
:100D800006F10800C068B86140E0B268904207D23E
:100D900004223A7706F10802D2688218BA6101E0AB
:100DA00002223A771A4683187B610BE051F8043B24
:100DB0003C6A1355521C401E04D03C6A1B0A135552
:100DC000521C401E0028F1D1387B022807D107F1C0
:100DD00024004078C00702D53868FFF714FA0321D1
:100DE0003868FFF74FFA06F10800017F491E0177C6
:100DF00039680968090502D50621017513E0B8694B
:100E00007969401A7FF46AAF03203877387F022867
:100E100009D0012807D03869002804D0284639694C
:100E2000BDE8F0410847BDE8F08100F00F0149003E
:100E3000000600D5491C0846C0B27047002805D0FE
:100E400000231A461146012000F06ABF70472DE9C1
:100E5000F84300F0ADFF84488188008840F01F000F
:100E60000140C1F3C030002848D001F00F00864A8D
:100E700012F8200000F00F00090901F0010181F0D3
:100E8000010101EB4004E4B204EB8400C500794E9B
:100E9000AF1907F10C0898F81900C0072ED52046A5
:100EA000C007A85911D5FFF7BEF9A85900F088FF6F
:100EB0008146012088F81800387B01281BD0A859EA
:100EC00000F086FF814516D110E0FFF71EFAA85901
:100ED00000F07EFF8146012088F81800387B012849
:100EE00009D0A85900F06CFF814504D198F818008A
:100EF000401C88F818002046FFF715FEBDE8F143B6
:100F000000F057BF00000000BF8FFFFFCF8FFFFF33
:100F10000F8FFFFF8F8EFFFF8F89FFFF8FBFFFFFB8
:100F20008FCFFFFF70B500F041FF4F4CA5882088A0
:100F300040F01F000540C5F38020002809D04FF67F
:100F4000FF30A080FFF760FA002000F06AFA00F09E
:100F500077FAC5F30030002805D04EF2FF70A0806C
:100F60000220FFF703FDC5F3C020002807D0FFF7DC
:100F7000F2FC4EF2FF70A080012000F052FAC5F39F
:100F80000020002805D04FF6FF60A0800020FFF76A
:100F9000EDFCC5F3C030002860D005F00F003A49E1
:100FA00011F8200000F00F00290901F0010181F083
:100FB000010101EB4004E4B204EB8400C0002D4DBC
:100FC000411991F82520D20748D4012281F8242024
:100FD0002146C907405902D5FFF725F901E0FFF77F
:100FE00094F9002C2BD12B4E286800F0F9FE002834
:100FF0001CD0012085F84C0000234FF0FF32194629
:1010000000F08EFE002308223146184600F088FECC
:101010003078C00902D0002000F08CFA00F026FAE7
:10102000287F07281AD1FFF742FD17E03078C00962
:1010300011D0296900290ED0002088470EE0012C2C
:1010400009D114480078C00905D1A96B002902D044
:101050000120884702E02046FFF765FDBDE87040AB
:1010600000F0A5BE8F0FFFFF405C0040000C014068
:1010700000080140240A002024100020241200202F
:1010800000040000C0030000005C0040006000405D
:101090004C5C00402C1200200000000007050000FE
:1010A00008000000000000000000000007058000AC
:1010B00008000000000000000000000001B40098DB
:1010C0000068C0F3011001B0704701B400980068D7
:1010D00000F44050000B01B0704750F8041B61B1A0
:1010E00050F8042BD30744BFA9F101039A18002339
:1010F00042F8043B091FFAD1EFE77047174908602F
:101100007047174A0029116802D0084310607047E1
:1011100021EA000010607047124A0029116802D0CD
:1011200008431060704721EA0000106070470E4AC3
:101130000029116802D008431060704721EA0000BE
:1011400010607047094A0029116802D008431060F6
:10115000704721EA0000106070470000D80042424A
:10116000181002401C1002400C10024010100240E7
:10117000F0B40023CC7804F00F02E40601D58C789B
:1011800022430C88E4B2002C1CD0046803E0482DF4
:1011900000D106615B1C082B13D2012505FA03F66A
:1011A00035460F882F40AF42F4D19D000F27AF4046
:1011B000BC4302FA05F52C43CD78282DE7D14661D2
:1011C000E8E704600B88FF2B1FDD4468002319E06B
:1011D000012503F1080605FA06F635460F882F406B
:1011E000AF420ED19D000F27AF40BC4302FA05F578
:1011F0002C43CD78282D00D14661CD78482D00D1E3
:1012000006615B1C082BE3D34460F0BC7047002AE6
:1012100001D0016170474161704770B4154A14688C
:10122000C0F3034583B200F44016B6F5401F06D163
:1012300024F07064156825F0706515600FE0C60233
:1012400006D5032606FA05F5AC4344F0706406E0C3
:10125000450D2D0103FA05F5AC4344F070640029F7
:1012600004D0400D000103FA00F00443146070BC88
:1012700070470000040001401C4908431C490860F5
:10128000704770B403781A460121C478002C1DD031
:10129000174B1B6803F4E063C3F5E0631B0A447853
:1012A000C3F10405AC4085780F2626FA03F32B40E2
:1012B00023431B010F4C1355007842110E4B00F0D5
:1012C0001F0001FA00F043F8220006E050110B4A1B
:1012D00003F01F03994042F8201070BC7047084A81
:1012E0001140084307490860704700000000FA05F4
:1012F0000CED00E000E400E000E100E080E100E04F
:1013000080FFFF1F08ED00E0DFF8F809017801F029
:1013100078010170017E01F0FC010176FFF701B850
:10132000062824D8DFE800F0040A0F13171B210059
:10133000DFF8D009007800F007007047DFF8C40933
:101340000078C0097047DFF8BC0940687047DFF8D3
:10135000B409C0687047DFF8AC0940697047DFF82E
:10136000A409007EC0F340007047002070474FF092
:10137000FF30704770B50546DFF88849207800F0E7
:10138000070005280FD100260AE004EB8600026959
:101390003146A06800F021F9002100F09BFC761C8A
:1013A000E0688642F1D32846401E022804D9C01EB8
:1013B0000FD0401E13D026E00020C046C0460020BB
:1013C000FFF7C3FA002000F0F7FC002060606061C6
:1013D00022E00020C046C046002060601CE00026DD
:1013E0000AE004EB860002693146A06800F0F5F8D7
:1013F000012100F06FFC761CE0688642F1D30120E9
:10140000C046C04608E00020C046C046002000F0AC
:10141000D3FC002060606061207865F302002070DA
:1014200070BD0146491E8941C943C90FDFF8D42860
:10143000137803F07F0343EAC111117000F0BABCC6
:1014400080B50320FFF796FFBDE8014000F0B3BC74
:10145000884208D20146DFF8B00890F84D2042F0EB
:10146000040280F84D2008467047000080B5DFF880
:101470009C0801784A0912F0030203D0022A4BD0DB
:1014800041D352E042780C2A38D8DFE802F0070A4C
:10149000370D37101324272A2D303300BDE80140C3
:1014A0005FE1BDE80140C4E1BDE801403FE2BDE8C5
:1014B00001408FE21F22114202D1BDE8014012E338
:1014C000C90903D00120C046002832D0DFF838080F
:1014D0000721017701BDBDE801403BE3BDE80140C4
:1014E00045E3BDE8014064E3BDE801407CE3BDE8BD
:1014F00001409BE3BDE8014000F000BCDFF80808B4
:101500000721017701BD00F059FC002811D0DFF858
:10151000F8070721017701BD0120C046002808D047
:10152000DFF8E4070721017701BDDFF8DC070721B9
:10153000017701BD38B5DFF8D047DFF8D0572878FC
:10154000C00906D00020FFF779FC0FF225002061CA
:1015500031BD0120FFF772FC6878052803D10FF236
:101560003500A06331BD0FF20900A06331BD00005A
:1015700080B500234FF0FF321946012000F0D0FB68
:1015800000234FF0FF3219460846BDE8005000F036
:10159000C7BB000010B5DFF874078078DFF8644738
:1015A0006061FFF7D2F96069002803D00420FFF7DB
:1015B000E1FE02E00320FFF7DDFE00234FF0FF32E3
:1015C0001946012000F0ACFB00234FF0FF32194612
:1015D0000846BDE8104000F0A3BB10B4034601E08C
:1015E0001C78E31844882418A3420AD25C78042C9F
:1015F000F6D19C788C42F3D1DC789442F0D1184635
:1016000000E0002010BC704710B4DFF804170A682F
:1016100001E0591C11601368190007D04C78022CA6
:10162000F7D14C798442F4D1084600E0002010BC88
:10163000704710B4DFF8DC26002904D1017911606D
:101640000178081803E00878401800E008181368CB
:10165000002B0CD00178002909D04478052C02D148
:10166000591E116004E0042C01D0022CEED10020A0
:1016700010BC704770B506002DD0FFF7C5FF050000
:1016800001D1012070BD0420FFF774FE002000F09E
:1016900093FBDFF87046A5606660207E00F0FD00D9
:1016A0002076E979C1F3801100F0FE00084320762E
:1016B0002879E0600020024603E004EB80010A6123
:1016C000401CE1688842F8D30520FFF753FE20460E
:1016D00000F072FB05E0002000F06EFB0420FFF735
:1016E00049FE002070BD80B500280DD1DFF814063A
:1016F000017EC161DFF82036022200F11C010120C9
:1017000000F00EFB002002BD012002BD80B5DFF815
:10171000F4050021C161DFF80036022200F11C014E
:10172000012000F0FDFA002002BD10B500F07F019D
:10173000112901DB012010BDDFF8C8450021E1615E
:10174000C0B2FFF772FB04F11C01FFF7CBF9DFF821
:10175000C835022204F11C01012000F0E1FA00204A
:1017600010BD80B5DFF89C05007800F00700042864
:1017700034DBDFF89805C18802292FD10178CA0926
:101780002CD04288002A29D111F01F0103D0022950
:1017900015D00AD31DE08088FFF7A5FF002821D0CF
:1017A000DFF864050721017701BD8088FFF7AEFFF0
:1017B000002817D0DFF850050721017701BD808888
:1017C000FFF7B3FF00280DD0DFF83C0507210177B4
:1017D00001BDDFF834050721017701BDDFF82805D9
:1017E0000721017701BD002901D1012801D0012085
:1017F0007047DFF81005017E01F0FD010176002041
:1018000070470120704710B501F07F02112A01DAFC
:10181000002801D0012010BD0846C0B2FFF705FB2B
:1018200004460021FFF7F4F82046C046C0460020D9
:1018300010BD80B5DFF8CC04007800F00700042864
:101840004ADBDFF8C824D188002945D1117811F08E
:101850001F0103D0022926D00FD338E09188508889
:10186000FFF7C1FF002803D10020BDE8024061E678
:10187000DFF894040721017701BD05280EDB91886C
:101880005088FFF7BEFF002808D1DFF88C34002213
:1018900011460120BDE8005000F042BADFF86804AC
:1018A0000721017701BD9188052802DA7F200142D6
:1018B00008D15088FFF7A7FF002803D10020BDE81A
:1018C000024037E6DFF840040721017701BDDFF869
:1018D00038040721017701BDDFF82C0407210177C7
:1018E00001BD002901D1012801D001207047DFF896
:1018F0001404017E41F002010176002070470120AE
:10190000704710B501F07F02112A01DA002801D0DA
:10191000012010BD0846C0B2FFF787FA0446012136
:10192000FFF776F82046C046C046002010BD80B5BF
:10193000DFF8D003007800F00700042845DBDFF86B
:10194000CC23D188002940D1117811F01F0103D098
:10195000022921D00FD333E091885088FFF7C1FFCF
:10196000002803D10020BDE80240E3E5DFF898033A
:101970000721017701BD052809DB91885088FFF711
:10198000BEFF002803D10020BDE80240D2E5DFF809
:1019900078030721017701BD9188052802DA7F20AD
:1019A000014208D15088FFF7ACFF002803D1002086
:1019B000BDE80240BEE5DFF850030721017701BD15
:1019C000DFF844030721017701BDDFF83C0307215D
:1019D000017701BDDFF82C03007800F00700032831
:1019E0000FDBCA4801781F2211420AD181880029E1
:1019F00007D1C188002904D14088802801DA01205C
:101A000098E5C14807210177704710B500280DD12E
:101A1000C24CBE48C1882078FFF71AFD0246BE4B73
:101A20002146012000F07CF9002010BD012010BDEE
:101A300010B5BA49497C884201D3012010BDB44990
:101A4000096809684418B148C1886088FFF700FD3B
:101A50000246B14B2146012000F062F9002010BD82
:101A6000F8B5AB498C6800280BD1A848C18820780C
:101A7000FFF7EEFC0246A84B2146012000F050F98A
:101A80002FE00022022301E0521C9B1C2578AB4270
:101A90000AD29E4E1F5D96F804C06745F4D11F1907
:101AA0007F787679B742EFD1AB420CD2C96851F852
:101AB000224000E0241D002C03D0401EC0B20028AC
:101AC000F8D1002C01D10120F2BD9048C1882068D6
:101AD0000078FFF7BDFC904B02462168012000F022
:101AE0001FF90020F2BD80B58648007800F007009D
:101AF00003282BDB8548C178012904D01ED3032994
:101B000013D009D31AE08078FFF77FFF002820D098
:101B10007D480721017701BD8078FFF789FF002804
:101B200017D079480721017701BD8078FFF798FF2A
:101B300000280ED074480721017701BD0120C0465E
:101B4000002806D070480721017701BD6E480721A3
:101B5000017701BD6C486B49097801F00701042940
:101B600002DB07210177704707210177704710B525
:101B7000644C207800F00700042816DB6348418895
:101B8000002912D1818800290FD1C08801280CD1E9
:101B90000220FFF7C5FBE0615F4B012204F11C014D
:101BA0001046BDE8104000F0BBB857480721017748
:101BB00010BD80B55348007800F0070004280FDB03
:101BC0005248818800290BD1C188002908D180782A
:101BD000FFF750FD002803D10020BDE80240A9E432
:101BE00049480721017701BD18B44648017801F042
:101BF0000701052915D145498C88C268A24210D336
:101C0000CA88012A0DD1498800290AD1424B0122F4
:101C100000EB840000F11001104601B010BC00F090
:101C20007FB839480721017711BC70472DE9F84387
:101C3000344C207800F00700052831D1334DE88876
:101C400000282DD1AF88B846D4F808906A8841465C
:101C50004846FFF7C2FC060003D12B480721017755
:101C600021E004EB8700026941464846FFF7B5FCD6
:101C7000002100F02FF8A88804EB8000698801613A
:101C80000121304600F026F8204600F095F8224B5E
:101C900000221146012001B0BDE8F04300F040B839
:101CA000194807210177BDE8F18310B41849496844
:101CB00000E0091D0A68002A09D01378114C6468F5
:101CC000A342F6D153788342F3D1101D00E00020E7
:101CD00010BC704770B504460D46002607E0B0788A
:101CE000FFF7E3FF2A4601463046FEF74EFC314639
:101CF0002046FFF79EFC0600F1D170BD0248072187
:101D000001777047F4110020240A00202C120020D3
:101D10008C2D00083C12002035150008982C000876
:101D20002DE9F04104460D4616461F4604EB84009B
:101D30001D4901EBC00816F1010F05D1002088F8FC
:101D40001C00C8F810002BE000F056F8D8F800008E
:101D5000002803D100F05CF8082023E098F81C006C
:101D6000022803D100F054F800201BE00020C8F83E
:101D70001400C8F82050C8F81070C8F81860304631
:101D8000002805D198F8250040F0020088F82500C9
:101D9000012088F81C002046FEF7C5FE00F038F848
:101DA00098F81C00BDE8F081240A002070477047B5
:101DB000704770477047704700F052B800F074B831
:101DC00001B400980068800B00F0010001B070477A
:101DD00001B400980068800900F0010001B070476C
:101DE00001B40098006800F40060401E8041C043C8
:101DF000C00F01B07047FEE704480168002900D118
:101E000072B60168491C0160704700BF341200209F
:101E100003480168491E016000D162B6704700BFE7
:101E20003412002080B58A4800214161016189494E
:101E30004FF416520A6008228A7100228A8001211A
:101E40004160017841F0030101700121C160114638
:101E50008160084600F004F8BDE80140FFF754BA7D
:101E6000002814D04068002811D079480021016171
:101E7000012141610021816241628161C1610FF2F2
:101E80000513402200F12C010420FFF749BF7048E0
:101E9000012181624162002101628161C161416170
:101EA00070476B484069704710B501466A4C204640
:101EB000082200F0DBF8207800F01F0001284DD147
:101EC0006078202806D049D3222828D015D323288B
:101ED0003CD043E06088002840D1A08800283DD154
:101EE000E1880720FFF7B4FA0FF27503024659495B
:101EF0000020FFF715FF002010BD608800282DD1BD
:101F0000A08800282AD1E1880720FFF7A1FA02461D
:101F1000524B50490120FFF703FF002010BDE0881D
:101F200000281BD1A088002818D1A078484C21781F
:101F300060F300012170400860F34101217001202D
:101F4000FFF7F8FA0120E060002010BD404C0120AE
:101F50002061E060FFF7EEFA002010BD012010BD07
:101F600080B53D484178202908D1C088002805D097
:101F70003748012141600846FFF7DCFA384807215D
:101F8000017701BD324901228A6200EB80023448A8
:101F900000EBC2008069886170472D4901224A62C6
:101FA00000EB80022E4800EBC20080690862704797
:101FB000F8B50D46264C6169002901D10020F2BD1B
:101FC000002D21D0A16A00291DD0E669A769B91B9F
:101FD0008D4200D30D462A4631192C3100F081F88C
:101FE000A819E061B8420FD3FFF706FF0020A062F6
:101FF000E0611C4B402204F12C010420FFF790FE0D
:10200000FFF706FF00E000252846F2BD70B5044644
:102010000D460F4E7069002801D1002070BD002DC3
:1020200002D113E0FFF7F4FEFFF7E6FE0020706236
:102030000D4B2A4621460720FFF772FE0028F1D0FB
:10204000FFF7E6FE706A0028FCD0356A284670BDAE
:1020500088110020141200201C12002035150008E1
:10206000240A0020851F00089B1F000862B38B070D
:1020700008D0521E11F8013B00F8013B00F024800B
:102080008B07F6D1830740F0208000BF103A07D3BA
:1020900030B4B1E83810103AA0E83810F9D230BCAA
:1020A000530724BFB1E80810A0E8081044BF51F856
:1020B000043B40F8043BD20724BF31F8022B20F840
:1020C000022B44BF0B7803707047083A07D3B1E87E
:1020D0000810083A40F8043B40F804CBF7D2530705
:1020E000E4E710B50446FFF7C1FF204610BD00002D
:1020F000024681EA2221DFF84C2532F8111081EAEC
:10210000002080B270474840DFF83C15405C7047C3
:10211000002100F0B5BA70B50446042910DB081F91
:10212000012222700212A270E070A51C55208E1EA2
:1021300004E015F8011BFFF7E6FF761EF9D1607089
:1021400070BD00002DE9F041DFF80045FF21204679
:10215000FFF72EFF0546EDB2DFF8F464002D07D13E
:10216000B06800F001FB65285AD30020307057E0BA
:1021700000F0F7FAB060002702E0002030707F1C0A
:10218000FFB23846A8424BDA10F804804146B078D6
:10219000FFF7B9FFB07031780429EED8DFE801F01D
:1021A0000410171D2600E8E77069002802D00520FA
:1021B0003070E4E7B8F1010FE1D101203070DEE7C3
:1021C00086F801805520B07002203070D7E74FEAC2
:1021D0000820F06003203070D1E7F06848EA000082
:1021E000F0600020306104203070C8E73169B1F53B
:1021F000A06F02D305203070C1E7DFF8582401F842
:102200000280491C3161F2689142B8D172789042E3
:1022100002D005203070B2E7716100203070AEE767
:10222000BDE8F081F8B5050001D10FF2344528462C
:1022300000F0AEFA0646812E00DB8026DFF810445F
:1022400004F12400FFF764FF001900F12407802146
:10225000384601700120C71932462946384600F039
:102260001DFAC5190021284601700120401904F10A
:102270002401401AA061014604F12400BDE8F440A5
:1022800049E7F8B505460E46DFF8C44304F12400DB
:10229000FFF73EFF001900F1240729463846017078
:1022A0000120C5193146284601700120401904F16A
:1022B0002401401AA061014604F12400BDE8F44065
:1022C00029E770B5DFF888436069002824D404F159
:1022D0002400FFF71DFF001900F12405FF21284607
:1022E000017001204519012609E0DFF86803305C20
:1022F000C143C9B22846017001204519761C6069A6
:102300008642F2DB04F12400281AA061014604F1A0
:102310002400BDE87040FEE670BD70B5CC4C04F101
:102320002400FFF7F5FE001900F1240500212846DE
:1023300001700120451910226168284600F0AEF9AD
:1023400045194FF40071284600F0A3F94519C24E13
:102350003168284600F094F945197168284600F064
:102360008FF94519B168284600F08AF945194FF0F0
:10237000FF31284600F084F9401904F12401401A85
:10238000A061014604F12400BDE87040C3E64FF0AF
:1023900020204FF40051FF2202E000F8012B491EDB
:1023A000FBD1AB48002101620121812069E72DE9C1
:1023B000F843A74C606940F20521884207D1A54D3A
:1023C000681C00F082F90646B6F5F05F04D90021DA
:1023D0008220BDE8F44354E706F120274FF00008BF
:1023E00010E008EB050090F8059008EB0601C9B273
:1023F0005520FFF788FE80EA090008EB05014871C7
:1024000008F10108B8F5007FEBDB4FF40072691D9D
:102410003846FFF766FE06F50076206AB04200D225
:102420003046206201218220BDE8F44329E7F8B557
:10243000874C6069032804D000218320BDE8F44064
:102440001FE7864800F04FF9054648F688004FF030
:102450002026002704E016F8011BFFF749FE7F1C29
:10246000216A8F42F7D3A84201D1002904D100216B
:102470008320BDE8F44004E701218320BDE8F44057
:10248000FFE6F8B5724C6069032804D0002184206F
:10249000BDE8F440F5E6714800F025F9054648F638
:1024A00088004FF02026002704E016F8011BFFF7F4
:1024B0001FFE7F1C216A8F42F7D3A84201D1002959
:1024C00004D100218420BDE8F440DAE60121842013
:1024D000FFF7D7FE0120E061F1BD10B55C4CA069AB
:1024E000002832D1606900282FD000F072F95948D5
:1024F000007800280ED001281BD081280DD082281A
:102500000ED083280FD0842810D0FF2816D1FFF7D3
:10251000D8FE17E0FFF701FF14E0FFF738FF11E0E6
:10252000FFF745FF0EE0FFF782FF0BE0FFF7A9FF83
:1025300008E001210846FFF7A4FE03E00FF2301087
:10254000FFF770FE00202061606110BD404800214F
:10255000C1614170017041618161704710B53C4CAF
:10256000A16900290ED004F12400FFF74FFD0028D7
:1025700010D00020A061E069002803D000F06EF9BF
:102580000020E061FFF7DEFDFFF7A7FFBDE8104088
:1025900000F01AB910BD10B5FFF783FC002802D176
:1025A0004FF0FF3010BD2A4CA169002909D004F179
:1025B0002400FFF72BFD002801D1002010BD0020D2
:1025C000A061FFF7BFFD002010BD38B50C46204DBF
:1025D0006969012901DA002032BDA14200DA0C4606
:1025E00022461C49FFF77DFD00206861204632BD70
:1025F000F8B505460E46164CA069012802DB4FF0DF
:10260000FF30F2BD40F2FD40864202DB4FF0FF306A
:10261000F2BD04F12400FFF77BFD001900F124074F
:10262000324629463846FFF75CFDF01904F12401D3
:10263000401AA061014604F12400FFF76CFD002060
:10264000F2BD000078290008A02D0008240F00200A
:102650000000002024050020E8F7FF1F25050020CA
:10266000556E6B6E6F776E204572726F7200000050
:10267000556E6B6E6F776E20436F6D6D616E64008B
:102680000A0E02700A0C42700A0A8270C17004209D
:1026900070470A0A0270417002207047F8B504467C
:1026A0000D461646284600F073F83746864200DD90
:1026B000074632460021204600F0F3F83A46294604
:1026C0002046FFF70EFD3046F2BD017810F8012FCD
:1026D00042EA012110F8012F42EA012110F8012FEE
:1026E00042EA01207047017810F8012F42EA0120E8
:1026F0007047000022480168491C016021480168B8
:10270000490849000160292000F0EAB810B51C48CA
:10271000002101601C48016821F400610160C1686A
:1027200041F40061C160194C3F20A06240F2644056
:10273000E06240F232206063042020606020A061EB
:102740000120206248F244006064002020610120E2
:10275000E060292000F0B0F8206840F0010020601F
:1027600010BD07480068704705490968814201D3D8
:10277000081A70474FF0FF32101A0818704700000F
:1027800038120020102C01400C100240002C014097
:1027900000F10103810704D010F8011B89B1810702
:1027A000FAD10268B2F10131914311F0803F04BFC8
:1027B00050F8042FF6E710F8011B11B110F8011BB7
:1027C000FBE7C01A7047000019484FF40051016040
:1027D000704718484FF400510160704716484FF495
:1027E00000510160704715484FF400510160704777
:1027F0001348016821F01D010160C16841F01D010D
:10280000C16010484FF0443101600F4A42600F48E8
:10281000016041600E4801600E4941600E48016848
:1028200021F0E0610160016841F080610160704762
:10283000141001401010014014080140100801401C
:102840000C10024000080140B4442444000C014034
:1028500000100140444424440400014072B62DE9B4
:10286000FF5F41F68070C2F20000C0F800D042F273
:102870000000C2F20000D0F800D062B642F20400BC
:10288000C2F200000068004772B641F68070C2F2E2
:102890000000D0F800D062B6BDE8FF9F40F2001003
:1028A000704710B5044610460A460146204600F01F
:1028B0002FF8204610BD000010382B280FD22028FA
:1028C00005D2012101FA00F00F4908607047402845
:1028D00005D20121203801FA00F00B494860704709
:1028E00010382B280FD2202805D2012101FA00F040
:1028F000064908607047402805D20121203801FAB6
:1029000000F002494860704700E100E080E200E02A
:1029100062F30F2262F31F42401810F0030308D045
:10292000C91A1FD3DB0748BF00F8012D28BF20F8C4
:10293000022D130030B414461546103928BF20E983
:102940003C00FAD8490728BF20E90C0048BF40F8EE
:10295000042D890028BF20F8022D48BF00F8012D62
:1029600030BC7047C91818BF00F8012DCB0728BF2D
:1029700000F8012D70470000000021104220633054
:102980008440A550C660E770088129914AA16BB1C7
:102990008CC1ADD1CEE1EFF131121002733252226F
:1029A000B5529442F772D662399318837BB35AA317
:1029B000BDD39CC3FFF3DEE362244334200401143F
:1029C000E664C774A44485546AA54BB52885099567
:1029D000EEE5CFF5ACC58DD553367226111630060F
:1029E000D776F6669556B4465BB77AA719973887B7
:1029F000DFF7FEE79DD7BCC7C448E5588668A778CF
:102A00004008611802282338CCC9EDD98EE9AFF906
:102A1000488969990AA92BB9F55AD44AB77A966AAE
:102A2000711A500A333A122AFDDBDCCBBFFB9EEB56
:102A3000799B588B3BBB1AABA66C877CE44CC55C7E
:102A4000222C033C600C411CAEED8FFDECCDCDDDA6
:102A50002AAD0BBD688D499D977EB66ED55EF44E4E
:102A6000133E322E511E700E9FFFBEEFDDDFFCCFF6
:102A70001BBF3AAF599F788F8891A981CAB1EBA14A
:102A80000CD12DC14EF16FE18010A100C230E320C6
:102A90000450254046706760B9839893FBA3DAB36E
:102AA0003DC31CD37FE35EF3B1029012F322D23216
:102AB0003542145277625672EAB5CBA5A89589853E
:102AC0006EF54FE52CD50DC5E234C324A014810466
:102AD0006674476424540544DBA7FAB79987B8970E
:102AE0005FE77EF71DC73CD7D326F2369106B016B6
:102AF00057667676154634564CD96DC90EF92FE9CE
:102B0000C899E9898AB9ABA9445865480678276805
:102B1000C018E1088238A3287DCB5CDB3FEB1EFBAD
:102B2000F98BD89BBBAB9ABB754A545A376A167A55
:102B3000F10AD01AB32A923A2EFD0FED6CDD4DCD7D
:102B4000AABD8BADE89DC98D267C076C645C454CA5
:102B5000A23C832CE01CC10C1FEF3EFF5DCF7CDF4D
:102B60009BAFBABFD98FF89F176E367E554E745EF5
:102B7000932EB23ED10EF01E8268C1688A4202D105
:102B80004FF0FF3070470168515C521C826043680F
:102B90009A4201DB002282600846704710B4C26886
:102BA000531C4468A34200DB00238468A34202D183
:102BB0004FF0FF3003E004681155C360002010BCE3
:102BC000704710B52D4C04F11400FFF7D5FF002815
:102BD00002D50020207010BD2949086010BD0146B3
:102BE0002848DBE710B5284C2068400606D5FFF7DB
:102BF000E8FF206820F04000206003E06068C0B279
:102C0000FFF7EDFF3520BDE81040FFF769BE1B4818
:102C100000F164014161402181610021C1610162D3
:102C200000F124014160402181600021C160016107
:102C300001701648016821F00401016014490A6816
:102C400022F480420A60CA6842F48042CA60016885
:102C500021F0040101600F4840F27121016001215F
:102C600001616C21416000218160C160416841F4D3
:102C7000005141603520FFF71FBE0000E410002026
:102C800004380140E81000200038014004000140F1
:102C90000C10024008380140120100020200000836
:102CA000EB031023000001020301000009024300AE
:102CB00002010080640904000001020200000524F2
:102CC000001001052406000105240100010424026E
:102CD000060705810308000109040100020A00003B
:102CE00000070502024000000705830240000000C3
:102CF000AC2C000800000000018100000100000071
:102D000000000000010200000200000000000000BE
:102D1000018300000300000000000000F82C000800
:102D2000042D0008102D0008000000000403090411
:102D3000180345004B006900740073005A006F00CF
:102D40006E00650000000000180345004B005A00AB
:102D50002D00450030003800000000000000000099
:102D600012033000300030003000300030003000FE
:102D700032000000302D0008482D0008602D0008AA
:102D800000000000742D000800000000F02C000876
:102D90001C2D00082C2D0008842D000800000000C8
:102DA00000070E091C1B1215383F363124232A2D2B
:102DB00070777E796C6B6265484F464154535A5D1B
:102DC000E0E7EEE9FCFBF2F5D8DFD6D1C4C3CACD0B
:102DD00090979E998C8B8285A8AFA6A1B4B3BABDFB
:102DE000C7C0C9CEDBDCD5D2FFF8F1F6E3E4EDEAEB
:102DF000B7B0B9BEABACA5A28F88818693949D9ADB
:102E00002720292E3B3C35321F18111603040D0ACA
:102E10005750595E4B4C45426F68616673747D7ABA
:102E2000898E878095929B9CB1B6BFB8ADAAA3A4AA
:102E3000F9FEF7F0E5E2EBECC1C6CFC8DDDAD3D49A
:102E4000696E676075727B7C51565F584D4A43448A
:102E5000191E171005020B0C21262F283D3A33347A
:102E60004E49404752555C5B7671787F6A6D64636A
:102E70003E39303722252C2B0601080F1A1D14135A
:102E8000AEA9A0A7B2B5BCBB9691989F8A8D84834A
:102E9000DED9D0D7C2C5CCCBE6E1E8EFFAFDF4F33A
:102EA0003548016841F0010101604168334A114031
:102EB00041600168324A11400160016821F48021BB
:102EC0000160416821F4FE0141604FF41F018160FF
:102ED00000BF82B00020019000902748016841F4B3
:102EE00080310160016801F4003100910199491CB1
:102EF00001910099002903D10199B1F5A06FF1D199
:102F00000168490C01F0010100910099012932D1B9
:102F10001C490A6842F010020A600A68920892008E
:102F20000A600A6842F002020A6041684160416832
:102F30004160416841F480614160416821F47C1145
:102F40004160416841F4E8114160016841F08071DD
:102F5000016001688901FCD54168890889004160E8
:102F6000416841F002014160416801F00C0108290B
:102F7000FAD102B07047FEE7001002400000FFF8EF
:102F8000FFFFF6FE00200240816807E0026811683A
:102F9000536889185B18C36008320260C2689142A6
:102FA000F4D04A1C8260087870472DE9FF4D00F18B
:102FB000080100914FF0000A0168009A490802EBED
:102FC000C1010191D3460021029103910168490892
:102FD00000EBC101406800F0010501F10804400860
:102FE00004EBC0061FE000A8FFF7CEFF47B200A821
:102FF000FFF7CAFF8046DA450DD1B44208BF00F0A2
:103000001BF8D4F800A005B1CA44606800EB0A0BB5
:103010000834DA45F1D00AF8018B002F09D57F1C5E
:10302000E9D1DA45DFD1B442DDD1304604B0BDE8A4
:10303000F08D7F1EDBD5F4E7012000F001B8000021
:1030400080B5C046C046024A11001820ABBEFBE75F
:103050002600020080B5FEF7CFFEFFF721FF00211A
:103060004FF00060FEF73BF94FF44070FEF704F9B3
:10307000FFF7BEFBFFF7B7FBFFF748FBFFF7C7FD06
:10308000FFF764FA4CF25030009002E00098401EC6
:10309000009000980028F9D1FFF7A0FBFEF7C2FED0
:1030A000FEF7B6FEFFF795FBFEF7FBFE0028FBD010
:1030B000FFF754FAF8E7000010B5074979441831D2
:1030C000064C7C44163404E00A68081D51188847F1
:1030D0000146A142F8D110BD0800000030000000F8
:1030E000FBDFFFFF1C0D0000240500200000000096
:1030F000BBFEFFFF02000000020000006C000000A9
:103100001D00000000000020240500007047FEE7BD
:10311000FEE7FEE7FEE77047704770477047FDF730
:1031200096BEFDF7FFBE7047704700000120C04605
:10313000002801D0FFF7C0FF0020FFF78BFF00F051
:1031400000F800F001B8000007463846FFF778FFA6
:10315000FBE7C046C046C046C046FFF7E7FF000099
:10316000454B5A2D45303800FC0003603100088182
:103170000081008100810081008100810081008147
:08318000008100DA00000000EC
:04000005080031536B
:00000001FF
